{
  "_format": "hh-sol-artifact-1",
  "contractName": "TaskManager",
  "sourceName": "contracts/TaskManager.sol",
  "abi": [
    {
      "anonymous": false,
      "inputs": [
        {
          "indexed": true,
          "internalType": "uint256",
          "name": "taskId",
          "type": "uint256"
        },
        {
          "indexed": false,
          "internalType": "string",
          "name": "title",
          "type": "string"
        },
        {
          "indexed": false,
          "internalType": "string",
          "name": "description",
          "type": "string"
        },
        {
          "indexed": false,
          "internalType": "address",
          "name": "owner",
          "type": "address"
        }
      ],
      "name": "TaskAdded",
      "type": "event"
    },
    {
      "anonymous": false,
      "inputs": [
        {
          "indexed": true,
          "internalType": "uint256",
          "name": "taskId",
          "type": "uint256"
        }
      ],
      "name": "TaskCompleted",
      "type": "event"
    },
    {
      "anonymous": false,
      "inputs": [
        {
          "indexed": true,
          "internalType": "uint256",
          "name": "taskId",
          "type": "uint256"
        }
      ],
      "name": "TaskDeleted",
      "type": "event"
    },
    {
      "anonymous": false,
      "inputs": [
        {
          "indexed": true,
          "internalType": "uint256",
          "name": "taskId",
          "type": "uint256"
        },
        {
          "indexed": false,
          "internalType": "string",
          "name": "newTitle",
          "type": "string"
        },
        {
          "indexed": false,
          "internalType": "string",
          "name": "newDescription",
          "type": "string"
        }
      ],
      "name": "TaskEdited",
      "type": "event"
    },
    {
      "inputs": [
        {
          "internalType": "string",
          "name": "_title",
          "type": "string"
        },
        {
          "internalType": "string",
          "name": "_description",
          "type": "string"
        }
      ],
      "name": "addTask",
      "outputs": [],
      "stateMutability": "nonpayable",
      "type": "function"
    },
    {
      "inputs": [
        {
          "internalType": "uint256",
          "name": "_taskId",
          "type": "uint256"
        }
      ],
      "name": "deleteTask",
      "outputs": [],
      "stateMutability": "nonpayable",
      "type": "function"
    },
    {
      "inputs": [
        {
          "internalType": "uint256",
          "name": "_taskId",
          "type": "uint256"
        },
        {
          "internalType": "string",
          "name": "_newTitle",
          "type": "string"
        },
        {
          "internalType": "string",
          "name": "_newDescription",
          "type": "string"
        }
      ],
      "name": "editTask",
      "outputs": [],
      "stateMutability": "nonpayable",
      "type": "function"
    },
    {
      "inputs": [],
      "name": "getAllTasks",
      "outputs": [
        {
          "components": [
            {
              "internalType": "uint256",
              "name": "id",
              "type": "uint256"
            },
            {
              "internalType": "string",
              "name": "title",
              "type": "string"
            },
            {
              "internalType": "string",
              "name": "description",
              "type": "string"
            },
            {
              "internalType": "bool",
              "name": "completed",
              "type": "bool"
            },
            {
              "internalType": "address",
              "name": "owner",
              "type": "address"
            }
          ],
          "internalType": "struct TaskManager.Task[]",
          "name": "",
          "type": "tuple[]"
        }
      ],
      "stateMutability": "view",
      "type": "function"
    },
    {
      "inputs": [
        {
          "internalType": "uint256",
          "name": "_taskId",
          "type": "uint256"
        }
      ],
      "name": "markTaskCompleted",
      "outputs": [],
      "stateMutability": "nonpayable",
      "type": "function"
    }
  ],
  "bytecode": "0x608060405234801561001057600080fd5b5061133a806100206000396000f3fe608060405234801561001057600080fd5b50600436106100565760003560e01c80620b2bda1461005b5780634103c62e14610077578063560f319214610093578063779900b4146100af578063b37b1000146100cd575b600080fd5b6100756004803603810190610070919061097e565b6100e9565b005b610091600480360381019061008c9190610af1565b6101ed565b005b6100ad60048036038101906100a8919061097e565b61031a565b005b6100b7610469565b6040516100c49190610da5565b60405180910390f35b6100e760048036038101906100e29190610dc7565b610742565b005b803373ffffffffffffffffffffffffffffffffffffffff166001600083815260200190815260200160002060030160019054906101000a900473ffffffffffffffffffffffffffffffffffffffff1673ffffffffffffffffffffffffffffffffffffffff161461018e576040517f08c379a000000000000000000000000000000000000000000000000000000000815260040161018590610e9c565b60405180910390fd5b600180600084815260200190815260200160002060030160006101000a81548160ff021916908315150217905550817fc1fa7142cfb933d0855114a3bffde296944c30b727f297c14d0db4d553d3a5c760405160405180910390a25050565b823373ffffffffffffffffffffffffffffffffffffffff166001600083815260200190815260200160002060030160019054906101000a900473ffffffffffffffffffffffffffffffffffffffff1673ffffffffffffffffffffffffffffffffffffffff1614610292576040517f08c379a000000000000000000000000000000000000000000000000000000000815260040161028990610e9c565b60405180910390fd5b826001600086815260200190815260200160002060010190816102b591906110c8565b50816001600086815260200190815260200160002060020190816102d991906110c8565b50837fd32b5541f47e247b48c73059d1ec16ad1287856bc52388064e95ba4b0b0d1317848460405161030c9291906111d3565b60405180910390a250505050565b803373ffffffffffffffffffffffffffffffffffffffff166001600083815260200190815260200160002060030160019054906101000a900473ffffffffffffffffffffffffffffffffffffffff1673ffffffffffffffffffffffffffffffffffffffff16146103bf576040517f08c379a00000000000000000000000000000000000000000000000000000000081526004016103b690610e9c565b60405180910390fd5b600160008381526020019081526020016000206000808201600090556001820160006103eb9190610890565b6002820160006103fb9190610890565b6003820160006101000a81549060ff02191690556003820160016101000a81549073ffffffffffffffffffffffffffffffffffffffff02191690555050817fd078b251d950cc55c44340be1db732337ef4939a76e1367ee271ad2cb19c46af60405160405180910390a25050565b60606000805467ffffffffffffffff811115610488576104876109c6565b5b6040519080825280602002602001820160405280156104c157816020015b6104ae6108d0565b8152602001906001900390816104a65790505b5090506000805b60005481101561073957600073ffffffffffffffffffffffffffffffffffffffff166001600083815260200190815260200160002060030160019054906101000a900473ffffffffffffffffffffffffffffffffffffffff1673ffffffffffffffffffffffffffffffffffffffff161461072657600160008281526020019081526020016000206040518060a00160405290816000820154815260200160018201805461057490610eeb565b80601f01602080910402602001604051908101604052809291908181526020018280546105a090610eeb565b80156105ed5780601f106105c2576101008083540402835291602001916105ed565b820191906000526020600020905b8154815290600101906020018083116105d057829003601f168201915b5050505050815260200160028201805461060690610eeb565b80601f016020809104026020016040519081016040528092919081815260200182805461063290610eeb565b801561067f5780601f106106545761010080835404028352916020019161067f565b820191906000526020600020905b81548152906001019060200180831161066257829003601f168201915b505050505081526020016003820160009054906101000a900460ff161515151581526020016003820160019054906101000a900473ffffffffffffffffffffffffffffffffffffffff1673ffffffffffffffffffffffffffffffffffffffff1673ffffffffffffffffffffffffffffffffffffffff168152505083838151811061070c5761070b61120a565b5b6020026020010181905250818061072290611268565b9250505b808061073190611268565b9150506104c8565b50819250505090565b600080600081548092919061075690611268565b9190505590506040518060a001604052808281526020018481526020018381526020016000151581526020013373ffffffffffffffffffffffffffffffffffffffff16815250600160008381526020019081526020016000206000820151816000015560208201518160010190816107ce91906110c8565b5060408201518160020190816107e491906110c8565b5060608201518160030160006101000a81548160ff02191690831515021790555060808201518160030160016101000a81548173ffffffffffffffffffffffffffffffffffffffff021916908373ffffffffffffffffffffffffffffffffffffffff160217905550905050807f3c9075a5d6407a1e9fce25049b1aca5457711982cad21bba2bc6dca30b598d6c848433604051610883939291906112bf565b60405180910390a2505050565b50805461089c90610eeb565b6000825580601f106108ae57506108cd565b601f0160209004906000526020600020908101906108cc9190610917565b5b50565b6040518060a00160405280600081526020016060815260200160608152602001600015158152602001600073ffffffffffffffffffffffffffffffffffffffff1681525090565b5b80821115610930576000816000905550600101610918565b5090565b6000604051905090565b600080fd5b600080fd5b6000819050919050565b61095b81610948565b811461096657600080fd5b50565b60008135905061097881610952565b92915050565b6000602082840312156109945761099361093e565b5b60006109a284828501610969565b91505092915050565b600080fd5b600080fd5b6000601f19601f8301169050919050565b7f4e487b7100000000000000000000000000000000000000000000000000000000600052604160045260246000fd5b6109fe826109b5565b810181811067ffffffffffffffff82111715610a1d57610a1c6109c6565b5b80604052505050565b6000610a30610934565b9050610a3c82826109f5565b919050565b600067ffffffffffffffff821115610a5c57610a5b6109c6565b5b610a65826109b5565b9050602081019050919050565b82818337600083830152505050565b6000610a94610a8f84610a41565b610a26565b905082815260208101848484011115610ab057610aaf6109b0565b5b610abb848285610a72565b509392505050565b600082601f830112610ad857610ad76109ab565b5b8135610ae8848260208601610a81565b91505092915050565b600080600060608486031215610b0a57610b0961093e565b5b6000610b1886828701610969565b935050602084013567ffffffffffffffff811115610b3957610b38610943565b5b610b4586828701610ac3565b925050604084013567ffffffffffffffff811115610b6657610b65610943565b5b610b7286828701610ac3565b9150509250925092565b600081519050919050565b600082825260208201905092915050565b6000819050602082019050919050565b610bb181610948565b82525050565b600081519050919050565b600082825260208201905092915050565b60005b83811015610bf1578082015181840152602081019050610bd6565b60008484015250505050565b6000610c0882610bb7565b610c128185610bc2565b9350610c22818560208601610bd3565b610c2b816109b5565b840191505092915050565b60008115159050919050565b610c4b81610c36565b82525050565b600073ffffffffffffffffffffffffffffffffffffffff82169050919050565b6000610c7c82610c51565b9050919050565b610c8c81610c71565b82525050565b600060a083016000830151610caa6000860182610ba8565b5060208301518482036020860152610cc28282610bfd565b91505060408301518482036040860152610cdc8282610bfd565b9150506060830151610cf16060860182610c42565b506080830151610d046080860182610c83565b508091505092915050565b6000610d1b8383610c92565b905092915050565b6000602082019050919050565b6000610d3b82610b7c565b610d458185610b87565b935083602082028501610d5785610b98565b8060005b85811015610d935784840389528151610d748582610d0f565b9450610d7f83610d23565b925060208a01995050600181019050610d5b565b50829750879550505050505092915050565b60006020820190508181036000830152610dbf8184610d30565b905092915050565b60008060408385031215610dde57610ddd61093e565b5b600083013567ffffffffffffffff811115610dfc57610dfb610943565b5b610e0885828601610ac3565b925050602083013567ffffffffffffffff811115610e2957610e28610943565b5b610e3585828601610ac3565b9150509250929050565b600082825260208201905092915050565b7f4e6f7420746865207461736b206f776e65720000000000000000000000000000600082015250565b6000610e86601283610e3f565b9150610e9182610e50565b602082019050919050565b60006020820190508181036000830152610eb581610e79565b9050919050565b7f4e487b7100000000000000000000000000000000000000000000000000000000600052602260045260246000fd5b60006002820490506001821680610f0357607f821691505b602082108103610f1657610f15610ebc565b5b50919050565b60008190508160005260206000209050919050565b60006020601f8301049050919050565b600082821b905092915050565b600060088302610f7e7fffffffffffffffffffffffffffffffffffffffffffffffffffffffffffffffff82610f41565b610f888683610f41565b95508019841693508086168417925050509392505050565b6000819050919050565b6000610fc5610fc0610fbb84610948565b610fa0565b610948565b9050919050565b6000819050919050565b610fdf83610faa565b610ff3610feb82610fcc565b848454610f4e565b825550505050565b600090565b611008610ffb565b611013818484610fd6565b505050565b5b818110156110375761102c600082611000565b600181019050611019565b5050565b601f82111561107c5761104d81610f1c565b61105684610f31565b81016020851015611065578190505b61107961107185610f31565b830182611018565b50505b505050565b600082821c905092915050565b600061109f60001984600802611081565b1980831691505092915050565b60006110b8838361108e565b9150826002028217905092915050565b6110d182610bb7565b67ffffffffffffffff8111156110ea576110e96109c6565b5b6110f48254610eeb565b6110ff82828561103b565b600060209050601f8311600181146111325760008415611120578287015190505b61112a85826110ac565b865550611192565b601f19841661114086610f1c565b60005b8281101561116857848901518255600182019150602085019450602081019050611143565b868310156111855784890151611181601f89168261108e565b8355505b6001600288020188555050505b505050505050565b60006111a582610bb7565b6111af8185610e3f565b93506111bf818560208601610bd3565b6111c8816109b5565b840191505092915050565b600060408201905081810360008301526111ed818561119a565b90508181036020830152611201818461119a565b90509392505050565b7f4e487b7100000000000000000000000000000000000000000000000000000000600052603260045260246000fd5b7f4e487b7100000000000000000000000000000000000000000000000000000000600052601160045260246000fd5b600061127382610948565b91507fffffffffffffffffffffffffffffffffffffffffffffffffffffffffffffffff82036112a5576112a4611239565b5b600182019050919050565b6112b981610c71565b82525050565b600060608201905081810360008301526112d9818661119a565b905081810360208301526112ed818561119a565b90506112fc60408301846112b0565b94935050505056fea2646970667358221220914b131d6cf4ca572e180af85bb137f8c8633cc51fde812d08530405798cf7e464736f6c63430008130033",
  "linkReferences": {},
  "deployedLinkReferences": {}
}