{
  "_format": "hh-sol-artifact-1",
  "contractName": "TaskManager",
  "sourceName": "contracts/TaskManager.sol",
  "abi": [
    {
      "anonymous": false,
      "inputs": [
        {
          "indexed": false,
          "internalType": "uint256",
          "name": "taskId",
          "type": "uint256"
        },
        {
          "indexed": false,
          "internalType": "string",
          "name": "title",
          "type": "string"
        },
        {
          "indexed": false,
          "internalType": "address",
          "name": "owner",
          "type": "address"
        }
      ],
      "name": "TaskAdded",
      "type": "event"
    },
    {
      "anonymous": false,
      "inputs": [
        {
          "indexed": false,
          "internalType": "uint256",
          "name": "taskId",
          "type": "uint256"
        }
      ],
      "name": "TaskCompleted",
      "type": "event"
    },
    {
      "anonymous": false,
      "inputs": [
        {
          "indexed": false,
          "internalType": "uint256",
          "name": "taskId",
          "type": "uint256"
        }
      ],
      "name": "TaskDeleted",
      "type": "event"
    },
    {
      "anonymous": false,
      "inputs": [
        {
          "indexed": false,
          "internalType": "uint256",
          "name": "taskId",
          "type": "uint256"
        },
        {
          "indexed": false,
          "internalType": "string",
          "name": "newTitle",
          "type": "string"
        },
        {
          "indexed": false,
          "internalType": "string",
          "name": "newDescription",
          "type": "string"
        }
      ],
      "name": "TaskEdited",
      "type": "event"
    },
    {
      "inputs": [
        {
          "internalType": "string",
          "name": "_title",
          "type": "string"
        },
        {
          "internalType": "string",
          "name": "_description",
          "type": "string"
        }
      ],
      "name": "addTask",
      "outputs": [],
      "stateMutability": "nonpayable",
      "type": "function"
    },
    {
      "inputs": [
        {
          "internalType": "uint256",
          "name": "_taskId",
          "type": "uint256"
        }
      ],
      "name": "deleteTask",
      "outputs": [],
      "stateMutability": "nonpayable",
      "type": "function"
    },
    {
      "inputs": [
        {
          "internalType": "uint256",
          "name": "_taskId",
          "type": "uint256"
        },
        {
          "internalType": "string",
          "name": "_newTitle",
          "type": "string"
        },
        {
          "internalType": "string",
          "name": "_newDescription",
          "type": "string"
        }
      ],
      "name": "editTask",
      "outputs": [],
      "stateMutability": "nonpayable",
      "type": "function"
    },
    {
      "inputs": [],
      "name": "getTasks",
      "outputs": [
        {
          "components": [
            {
              "internalType": "uint256",
              "name": "id",
              "type": "uint256"
            },
            {
              "internalType": "string",
              "name": "title",
              "type": "string"
            },
            {
              "internalType": "string",
              "name": "description",
              "type": "string"
            },
            {
              "internalType": "bool",
              "name": "isCompleted",
              "type": "bool"
            },
            {
              "internalType": "address",
              "name": "owner",
              "type": "address"
            }
          ],
          "internalType": "struct TaskManager.Task[]",
          "name": "",
          "type": "tuple[]"
        }
      ],
      "stateMutability": "view",
      "type": "function"
    },
    {
      "inputs": [
        {
          "internalType": "uint256",
          "name": "_taskId",
          "type": "uint256"
        }
      ],
      "name": "markTaskCompleted",
      "outputs": [],
      "stateMutability": "nonpayable",
      "type": "function"
    },
    {
      "inputs": [],
      "name": "taskCounter",
      "outputs": [
        {
          "internalType": "uint256",
          "name": "",
          "type": "uint256"
        }
      ],
      "stateMutability": "view",
      "type": "function"
    },
    {
      "inputs": [
        {
          "internalType": "uint256",
          "name": "",
          "type": "uint256"
        }
      ],
      "name": "tasks",
      "outputs": [
        {
          "internalType": "uint256",
          "name": "id",
          "type": "uint256"
        },
        {
          "internalType": "string",
          "name": "title",
          "type": "string"
        },
        {
          "internalType": "string",
          "name": "description",
          "type": "string"
        },
        {
          "internalType": "bool",
          "name": "isCompleted",
          "type": "bool"
        },
        {
          "internalType": "address",
          "name": "owner",
          "type": "address"
        }
      ],
      "stateMutability": "view",
      "type": "function"
    }
  ],
  "bytecode": "0x6080604052348015600f57600080fd5b5061154e8061001f6000396000f3fe608060405234801561001057600080fd5b506004361061007c5760003560e01c8063560f31921161005b578063560f3192146100d757806358671730146100f35780638d97767214610111578063b37b1000146101455761007c565b80620b2bda1461008157806304a87e381461009d5780634103c62e146100bb575b600080fd5b61009b60048036038101906100969190610af1565b610161565b005b6100a561026e565b6040516100b29190610d58565b60405180910390f35b6100d560048036038101906100d09190610eaf565b6104c6565b005b6100f160048036038101906100ec9190610af1565b6105e6565b005b6100fb61073d565b6040516101089190610f49565b60405180910390f35b61012b60048036038101906101269190610af1565b610743565b60405161013c959493929190610fcc565b60405180910390f35b61015f600480360381019061015a919061102d565b6108b6565b005b803373ffffffffffffffffffffffffffffffffffffffff1660008083815260200190815260200160002060030160019054906101000a900473ffffffffffffffffffffffffffffffffffffffff1673ffffffffffffffffffffffffffffffffffffffff1614610205576040517f08c379a00000000000000000000000000000000000000000000000000000000081526004016101fc906110f1565b60405180910390fd5b600160008084815260200190815260200160002060030160006101000a81548160ff0219169083151502179055507fc1fa7142cfb933d0855114a3bffde296944c30b727f297c14d0db4d553d3a5c7826040516102629190610f49565b60405180910390a15050565b6060600060015467ffffffffffffffff81111561028e5761028d610d84565b5b6040519080825280602002602001820160405280156102c757816020015b6102b4610a03565b8152602001906001900390816102ac5790505b50905060005b6001548110156104be576000808281526020019081526020016000206040518060a00160405290816000820154815260200160018201805461030e90611140565b80601f016020809104026020016040519081016040528092919081815260200182805461033a90611140565b80156103875780601f1061035c57610100808354040283529160200191610387565b820191906000526020600020905b81548152906001019060200180831161036a57829003601f168201915b505050505081526020016002820180546103a090611140565b80601f01602080910402602001604051908101604052809291908181526020018280546103cc90611140565b80156104195780601f106103ee57610100808354040283529160200191610419565b820191906000526020600020905b8154815290600101906020018083116103fc57829003601f168201915b505050505081526020016003820160009054906101000a900460ff161515151581526020016003820160019054906101000a900473ffffffffffffffffffffffffffffffffffffffff1673ffffffffffffffffffffffffffffffffffffffff1673ffffffffffffffffffffffffffffffffffffffff16815250508282815181106104a6576104a5611171565b5b602002602001018190525080806001019150506102cd565b508091505090565b823373ffffffffffffffffffffffffffffffffffffffff1660008083815260200190815260200160002060030160019054906101000a900473ffffffffffffffffffffffffffffffffffffffff1673ffffffffffffffffffffffffffffffffffffffff161461056a576040517f08c379a0000000000000000000000000000000000000000000000000000000008152600401610561906110f1565b60405180910390fd5b6000806000868152602001908152602001600020905083816001019081610591919061134c565b50828160020190816105a3919061134c565b507fd32b5541f47e247b48c73059d1ec16ad1287856bc52388064e95ba4b0b0d13178585856040516105d79392919061141e565b60405180910390a15050505050565b803373ffffffffffffffffffffffffffffffffffffffff1660008083815260200190815260200160002060030160019054906101000a900473ffffffffffffffffffffffffffffffffffffffff1673ffffffffffffffffffffffffffffffffffffffff161461068a576040517f08c379a0000000000000000000000000000000000000000000000000000000008152600401610681906110f1565b60405180910390fd5b6000808381526020019081526020016000206000808201600090556001820160006106b59190610a4a565b6002820160006106c59190610a4a565b6003820160006101000a81549060ff02191690556003820160016101000a81549073ffffffffffffffffffffffffffffffffffffffff021916905550507fd078b251d950cc55c44340be1db732337ef4939a76e1367ee271ad2cb19c46af826040516107319190610f49565b60405180910390a15050565b60015481565b600060205280600052604060002060009150905080600001549080600101805461076c90611140565b80601f016020809104026020016040519081016040528092919081815260200182805461079890611140565b80156107e55780601f106107ba576101008083540402835291602001916107e5565b820191906000526020600020905b8154815290600101906020018083116107c857829003601f168201915b5050505050908060020180546107fa90611140565b80601f016020809104026020016040519081016040528092919081815260200182805461082690611140565b80156108735780601f1061084857610100808354040283529160200191610873565b820191906000526020600020905b81548152906001019060200180831161085657829003601f168201915b5050505050908060030160009054906101000a900460ff16908060030160019054906101000a900473ffffffffffffffffffffffffffffffffffffffff16905085565b6000600160008154809291906108cb90611492565b9190505590506040518060a001604052808281526020018481526020018381526020016000151581526020013373ffffffffffffffffffffffffffffffffffffffff16815250600080838152602001908152602001600020600082015181600001556020820151816001019081610942919061134c565b506040820151816002019081610958919061134c565b5060608201518160030160006101000a81548160ff02191690831515021790555060808201518160030160016101000a81548173ffffffffffffffffffffffffffffffffffffffff021916908373ffffffffffffffffffffffffffffffffffffffff1602179055509050507f02e076a310986b85f971dffa52a2e73b1e0de166a4a485a1d0bff408126f8d558184336040516109f6939291906114da565b60405180910390a1505050565b6040518060a00160405280600081526020016060815260200160608152602001600015158152602001600073ffffffffffffffffffffffffffffffffffffffff1681525090565b508054610a5690611140565b6000825580601f10610a685750610a87565b601f016020900490600052602060002090810190610a869190610a8a565b5b50565b5b80821115610aa3576000816000905550600101610a8b565b5090565b6000604051905090565b600080fd5b600080fd5b6000819050919050565b610ace81610abb565b8114610ad957600080fd5b50565b600081359050610aeb81610ac5565b92915050565b600060208284031215610b0757610b06610ab1565b5b6000610b1584828501610adc565b91505092915050565b600081519050919050565b600082825260208201905092915050565b6000819050602082019050919050565b610b5381610abb565b82525050565b600081519050919050565b600082825260208201905092915050565b60005b83811015610b93578082015181840152602081019050610b78565b60008484015250505050565b6000601f19601f8301169050919050565b6000610bbb82610b59565b610bc58185610b64565b9350610bd5818560208601610b75565b610bde81610b9f565b840191505092915050565b60008115159050919050565b610bfe81610be9565b82525050565b600073ffffffffffffffffffffffffffffffffffffffff82169050919050565b6000610c2f82610c04565b9050919050565b610c3f81610c24565b82525050565b600060a083016000830151610c5d6000860182610b4a565b5060208301518482036020860152610c758282610bb0565b91505060408301518482036040860152610c8f8282610bb0565b9150506060830151610ca46060860182610bf5565b506080830151610cb76080860182610c36565b508091505092915050565b6000610cce8383610c45565b905092915050565b6000602082019050919050565b6000610cee82610b1e565b610cf88185610b29565b935083602082028501610d0a85610b3a565b8060005b85811015610d465784840389528151610d278582610cc2565b9450610d3283610cd6565b925060208a01995050600181019050610d0e565b50829750879550505050505092915050565b60006020820190508181036000830152610d728184610ce3565b905092915050565b600080fd5b600080fd5b7f4e487b7100000000000000000000000000000000000000000000000000000000600052604160045260246000fd5b610dbc82610b9f565b810181811067ffffffffffffffff82111715610ddb57610dda610d84565b5b80604052505050565b6000610dee610aa7565b9050610dfa8282610db3565b919050565b600067ffffffffffffffff821115610e1a57610e19610d84565b5b610e2382610b9f565b9050602081019050919050565b82818337600083830152505050565b6000610e52610e4d84610dff565b610de4565b905082815260208101848484011115610e6e57610e6d610d7f565b5b610e79848285610e30565b509392505050565b600082601f830112610e9657610e95610d7a565b5b8135610ea6848260208601610e3f565b91505092915050565b600080600060608486031215610ec857610ec7610ab1565b5b6000610ed686828701610adc565b935050602084013567ffffffffffffffff811115610ef757610ef6610ab6565b5b610f0386828701610e81565b925050604084013567ffffffffffffffff811115610f2457610f23610ab6565b5b610f3086828701610e81565b9150509250925092565b610f4381610abb565b82525050565b6000602082019050610f5e6000830184610f3a565b92915050565b600082825260208201905092915050565b6000610f8082610b59565b610f8a8185610f64565b9350610f9a818560208601610b75565b610fa381610b9f565b840191505092915050565b610fb781610be9565b82525050565b610fc681610c24565b82525050565b600060a082019050610fe16000830188610f3a565b8181036020830152610ff38187610f75565b905081810360408301526110078186610f75565b90506110166060830185610fae565b6110236080830184610fbd565b9695505050505050565b6000806040838503121561104457611043610ab1565b5b600083013567ffffffffffffffff81111561106257611061610ab6565b5b61106e85828601610e81565b925050602083013567ffffffffffffffff81111561108f5761108e610ab6565b5b61109b85828601610e81565b9150509250929050565b7f4e6f7420746865207461736b206f776e65720000000000000000000000000000600082015250565b60006110db601283610f64565b91506110e6826110a5565b602082019050919050565b6000602082019050818103600083015261110a816110ce565b9050919050565b7f4e487b7100000000000000000000000000000000000000000000000000000000600052602260045260246000fd5b6000600282049050600182168061115857607f821691505b60208210810361116b5761116a611111565b5b50919050565b7f4e487b7100000000000000000000000000000000000000000000000000000000600052603260045260246000fd5b60008190508160005260206000209050919050565b60006020601f8301049050919050565b600082821b905092915050565b6000600883026112027fffffffffffffffffffffffffffffffffffffffffffffffffffffffffffffffff826111c5565b61120c86836111c5565b95508019841693508086168417925050509392505050565b6000819050919050565b600061124961124461123f84610abb565b611224565b610abb565b9050919050565b6000819050919050565b6112638361122e565b61127761126f82611250565b8484546111d2565b825550505050565b600090565b61128c61127f565b61129781848461125a565b505050565b5b818110156112bb576112b0600082611284565b60018101905061129d565b5050565b601f821115611300576112d1816111a0565b6112da846111b5565b810160208510156112e9578190505b6112fd6112f5856111b5565b83018261129c565b50505b505050565b600082821c905092915050565b600061132360001984600802611305565b1980831691505092915050565b600061133c8383611312565b9150826002028217905092915050565b61135582610b59565b67ffffffffffffffff81111561136e5761136d610d84565b5b6113788254611140565b6113838282856112bf565b600060209050601f8311600181146113b657600084156113a4578287015190505b6113ae8582611330565b865550611416565b601f1984166113c4866111a0565b60005b828110156113ec578489015182556001820191506020850194506020810190506113c7565b868310156114095784890151611405601f891682611312565b8355505b6001600288020188555050505b505050505050565b60006060820190506114336000830186610f3a565b81810360208301526114458185610f75565b905081810360408301526114598184610f75565b9050949350505050565b7f4e487b7100000000000000000000000000000000000000000000000000000000600052601160045260246000fd5b600061149d82610abb565b91507fffffffffffffffffffffffffffffffffffffffffffffffffffffffffffffffff82036114cf576114ce611463565b5b600182019050919050565b60006060820190506114ef6000830186610f3a565b81810360208301526115018185610f75565b90506115106040830184610fbd565b94935050505056fea264697066735822122029e93c42a9010d3c81a017ce12bfd9b9ea4da1a8f9d7675ce2f57d925b558cc864736f6c634300081c0033",
  "linkReferences": {},
  "deployedLinkReferences": {}
}